:100000007591207592007593FF75941F75854AD47C
:100010000000000000000000000000000000FFFFE2
:100020000202100213B300000000000000000000F4
:100030000000000214830000000000000000000027
:1000400000000000000000000000000213AA0000F1
:10005000100C0A101828343E0C0C0E141A3A3C38B6
:100060000E0E1018283A46380E12161E3458503EFE
:1000700012162638446E684E182438405268725C56
:1000800032404E58687A7866485C60627064686492
:10009000121216306464646412161A426464646452
:1000A000161A38646464646430426464646464642A
:1000B0006464646464646464646464646464646400
:1000C00064646464646464646464646464646464F0
:1000D000000108100902030A11182019120B040567
:1000E0000C131A21283029221B140D06070E151C8B
:1000F000232A313839322B241D160F171E252C3395
:100100003A3B342D261F272E353C3D362F373E3FB8
:100110000F1F2F3F5F7FBFFF0000000000000000A7
:1001200000000000000000000000000000000000CF
:1001300000000000000000000000000000000000BF
:1001400000000000000000000000000000000000AF
:10015000000000000000000000000000000000009F
:10016000000000000000000000000000000000008F
:10017000000000000000000000000000000000007F
:10018000000000000000000000000000000000006F
:10019000000000000000000000000000000000005F
:1001A000000000000000000000000000000000004F
:1001B000000000000000000000000000000000003F
:1001C000000000000000000000000000000000002F
:1001D000000000000000000000000000000000001F
:1001E000000000000000000000000000000000000F
:1001F00000000000000000000000000000000000FF
:1002000000000000000000000000000000000000EE
:1002100000000000000000000000000000000000DE
:10022000736167653E3C4D6573736167652044612A
:100230007581501202F80202B890FF0D740FF0A3FE
:100240007401F01204101203E6120501754A0090C1
:10025000FF83E044FFF090FF86E054F0F0A374AF1A
:10026000F012042F1202D020090241477A0612052B
:100270002E40EEB4AA0302027EDAF3C209E54A0474
:10028000F54AB40802800A9000F09390FF0DF04107
:100290004190FF86E054F0F0A374A0F041101205E5
:1002A0002E40BEB40DBB120501C20BC209C2787547
:1002B000220D7A0A1204781204691204ADE5237043
:1002C00002DAF1752300F522D20DC2011204ADE568
:1002D0002360F91205F880F4120416740190FF2DC2
:1002E000F0A37401F090FF2C7407F012131D411954
:1002F00090FF0C7417F0749E90FF74F090FF907450
:1003000000F0742B90FF28F0C209C20B90FF69E443
:10031000F0A3F0A37406F022E4F523F529F533F5F4
:1003200034F547F520F521F52F751E3A751F00129B
:10033000042E90FF057407F012037490FF00E5355A
:10034000F0B4FF0280191203CA1203D7E535B400D6
:10035000059014948006B404039015A11212F612AD
:100360001432D2AFD2A890FF0D740FF0A37401F035
:100370001203671205011205BED31205521205E6DB
:10038000C20D2290FF0DF090FF0C7417F0749F9037
:10039000FF74F0227F00901484EF232323F50812CA
:1003A00003C4F54D1203C4F53212121F20062D901E
:1003B00014841203C452301203C4B5301F1203C494
:1003C000F53212121F2006149014841203C4523006
:1003D0001203C4B530061203C4F535220FBF02B6AE
:1003E0007535FF22E50893050822753212753080B5
:1003F0001211F41213322290FF0FE53520E003E4CE
:10040000F0227401F02271D790FF84E054FDF015C2
:1004100082E054FDF0121332E535B40412753276E1
:100420007530221211F41213327530021211F422B7
:1004300090FF7AE4F02290FF84E04402F01582E01D
:1004400054FDF01213322290FF7A7407F022221228
:1004500005E612133290FF65E030E7F322C3120580
:1004600052C20A90FF2974AAF0A3E529F01582E58B
:100470002AF0A3E52BF01582E52CF0A3E52DF0C3BF
:100480001205A950037542FF2275290DE4F52AF5DE
:100490002BF52CF52D913D2275290E85222A8533C9
:1004A0002BE4F52CF52D913D05332275290F85346C
:1004B0002B85422CE4F52AF52D913D053422752932
:1004C0000A85362B85372C85382D913D22D3120590
:1004D000527F027B007CC420090B12131DDCF8DB69
:1004E000F4DFF041B87C0112052E404FB4AA26DC9F
:1004F000F612052E4045F5237C04792412052E4082
:100500003AF709DCF71205E6C20BC20990FF65E075
:1005100030E7388038200D14C20BC2091205018162
:10052000AD740290FF2CF012131D801FC20BC20984
:100530007542F0918B912F81AD8010300DDAC20B96
:10054000C2097542F1918B912F81AD912F22C00785
:10055000C37F0A90FF65E030E70912131DDFF4D373
:10056000D0072290FF26300B0390FF27E0B20BD07C
:100570000722400690FF6F02055D90FF691205C1DA
:10058000742B90FF28F02290FF69400390FF6F12B8
:100590000C8274304002740490FF28F022C003C023
:1005A000047B007C00500520090FA18F200A121245
:1005B0001332DCF1DBEDD3800BC3C2091205BE8020
:1005C00003C3C20AD004D00322C0047C00200A085E
:1005D00012131DDCF8D38003C3C20AD0042290FF9B
:1005E00069E4F0A3F0A37406F022740090FF90F089
:1005F00022740090FF91F02290FF90800390FF9171
:10060000E043820CF02290FF65E020E70690FF2790
:10061000E080F3C20BC20922F522752300B4010465
:1006200012068F22B4020412092D22B40304120907
:100630005E22B4040412097C22B40504120CE022E8
:10064000B40804120D8B22B409099178758150C247
:100650000D41B8B40A0122B40704120DF522B40BFF
:1006600004120E0322B40604120E8622B40C0C915E
:100670008B90FF0C741FF0D40080FEB40D057581C3
:10068000504186B40E0122B40F0122B4100412109E
:100690005122B4120412108222B413041211232224
:1006A000B4150412119D2275420D918B912F22E5F4
:1006B00035B4FF028065E525B40100405EB4071043
:1006C000E527B401004054B40C00504FF53A801CAB
:1006D0005049E526B40105753A058010403DB40443
:1006E0000050020404B40C005031F53AE53A20E021
:1006F00007E53530E0258005E53520E01E120703CB
:10070000120849E525C44526F539B4700050091290
:1007100008AB5004918B912F91782275420B918BED
:10072000912F22D20CE53A540FB4091A753E207568
:100730003F20753C01753D801207DA742175F00188
:100740001207AC020792B40B12753E20753F187564
:100750003C01753D201207FF02078FB40710753E5C
:10076000A0753F78753C1C753D20C20C803EB405D9
:100770000E753E50753F3C753C07753D08802DB4A5
:100780000311753E28753F20753C01753DE0120749
:10079000DA801CB40111753E14753F10753C00756C
:1007A0003D781208248008D375420A221207B51238
:1007B00007A7E53C90FF8EF0E53DA3F0E53E90FFF6
:1007C00003F0E53FA3F022740175F00190FF01F002
:1007D000E5F0A3F02290FF957480F090FF967400EE
:1007E000F090FF977480F090FF987400F090FF995C
:1007F0007400F090FF9A7400F02290FF957440F01E
:1008000090FF967400F090FF977444F090FF9874F6
:1008100044F090FF997413F090FF9A7413F02290B3
:10082000FF957433F090FF967433F090FF97743314
:10083000F090FF987433F090FF997413F090FF9A42
:100840007413F02290FF957420F090FF967400F0DE
:1008500090FF977422F090FF987422F090FF9974A3
:1008600013F090FF9A7413F022E535B4002175322D
:100870001112121FE53030E10B90153E300C35900F
:100880001580803090151D300C2A90155F8025B49E
:10089000042175322A12121FE53030E20B90160740
:1008A000300C11901629800C9015F6300C0690161D
:1008B000188001221212F6E535B4040EE53AB405AB
:1008C000097532267530321211F422E539C4540FFD
:1008D000B40108753B00750804803CB40208753B00
:1008E000017508088031B40308753B027508108053
:1008F00026B40408753B10750810801BB4050875F4
:100900003B147508188010B40608753B187508204C
:100910008005D375420922E53A85390953090F95B7
:1009200009402020E021FFC4423B90FF10E53BF04E
:10093000EF03FF600CE53E03F53EE53F03F53FDFC7
:10094000F4C32275420222754203D32222E535B454
:1009500002028003B4041D75327512121FE524B41F
:10096000010643308002094D700A53307F1211F4A2
:10097000120478227542FC12048B12042F22E52502
:10098000600D8524328526301211F4120478227508
:1009900083FF852482E526F012047822E524B40141
:1009A000073078201209F822B40204120BB522B4E1
:1009B00003041209AE22B40506D278120ACC2275BD
:1009C0004201800375420F12048B12042F222274FD
:1009D0005A1213A512138012102E403B1212B81295
:1009E000125974AD121285402EAE37AD360EBD00D1
:1009F000030E7D0012129690FF22F01212A4121222
:100A00009690FF23F01212A41DDDE9DEE5C3121259
:100A1000961212A81212B82212047830050E120B88
:100A2000EDC205752500752600120CFA3000EC7534
:100A30002A017F031205CA200805120A78801312C2
:100A40000C1D40181205D81204ADE523752300B41F
:100A50000E0122B40F02DFDC75420422754205222A
:100A600075380090FF89E0F537A3E0F5367F02C3C3
:100A7000E53633F536E53733F537DFF422C3E536AF
:100A80003404F536E5373400F537C3E5371390FF06
:100A90000AF0A3E53613F0225140120CB412049E62
:100AA0001204ADE523603E752300B40EF3E526B4D1
:100AB000F007E527B4F0028026E51F600FE52770F8
:100AC00026851F09851E0885260A80098527098530
:100AD0002608851E0A120AEB400D120B3080C185D4
:100AE000370D120C6EC322754210D322120478C245
:100AF00005752501752600120CFA300505120BED5F
:100B000080ED3000F5752A05517822E508850AF058
:100B1000A4F508E50985F009850AF0A42509F50979
:100B2000C3E5369508F50AE53795094022F50BB57A
:100B30001F09E50AB51E00400A80024006851F0B0A
:100B4000851E0AC3E50913F549E50813F548C322D4
:100B5000745B1213A512138B90FF6F7400F0A3E562
:100B60000A2406F5F0E50B3400F0A3E5F0F01205D9
:100B70005A749F12036FC20A1205CA90FF29E52614
:100B8000F0A3E527F01582E50AF0A3E50BF090FF4E
:100B900024E090FF29F090FF25E090FF2AF090FFDD
:100BA00065E030E5F9C3E50A9402F50AE50B940027
:100BB000F50B70DAE50A70D612132712133290FF84
:100BC00090E090FF29F0A37400F012131D12131D82
:100BD000C312057D22120478C205120BF9300505F7
:100BE000120BED80F33000F51205CA752A02120CC3
:100BF0001D40161204ADE52360F9B40EF67523000E
:100C00001205D8120D32C2002275420522120D3291
:100C100012050105471214322274421213A5121351
:100C2000807481120D827401120C8E7404120C9F58
:100C3000741712036FC200C203120D39225140858E
:100C4000370D746B1213A512138090FF0A745FF0B6
:100C5000A374FEF090FF1B7402F0120CBB12049EF2
:100C60001205E6120C7F740A120C9F749F12036F18
:100C7000C20A7423120578120CA4C312057D121344
:100C800032120D32120CB44004120C6EC322E50D68
:100C9000B460005009E547600515471214322290F0
:100CA000FF6FE538F0A3E537F0A3E536F02290FFBB
:100CB0001BF090FF887414F090FF7274CCF02290B7
:100CC000FF8DF02290FF09743FF090FF087482F0CE
:100CD00074C2F022740090FF09F022E53E853FF0D7
:100CE000A485F0388508F0A4F53685F037E5388519
:100CF00008F0A485F0382537F537E43538F5382283
:100D0000C205D278E524600D14603F75420B1204D1
:100D10008B12042F22C20812047874421213A512F7
:100D20001380C200C203740312057874F4919F7497
:100D300001918E120D434009741512036F120D328A
:100D400022741712036F120D3922D20871F912049E
:100D5000782290FF087400F02290FF0874BEF074AF
:100D60009FF022852508852609750A7F12133DE527
:100D7000097004E5086016E50B701C750B7FC3E570
:100D8000089401F508E5099400F50980E2D3E50B24
:100D90007006750B018001C3850841850940E50B8C
:100DA000448090FF06F07400A3F022E52460331421
:100DB000600775420B12048B22120501120DD390AD
:100DC000FF6B7406F090FF71F0C20BC209C278127B
:100DD000047812131D1205E6200D067581500202DB
:100DE000B822120478740090FF2CF0758150C20D67
:100DF0000202B8C20BC209C20AC278E490FF08F02E
:100E0000A3F090FF11F090FF1B04F012055A90FF21
:100E10008D7404F02212047890FF0DE524F0A3E510
:100E200025F022120478E525600A85243212121F6B
:100E3000E530801FE524B4F008750E01750F0580BC
:100E400017B4F20885200F85210E800C7583FF856D
:100E50002482E0F50F750E007E03752A00753602B8
:100E6000E4F537F5381205CA12049E749F12036F19
:100E700090FF717402F090FF29E50FF0A3E50EF0EA
:100E8000C31205A9401C1205D81204ADE523700455
:100E900075420422752300B40E0122B40FF2DEBAAB
:100EA00080EE75420C22E524B40104120EBA22B47D
:100EB000020122B40304120F0A22B40819C3E52563
:100EC00020E00E9406F51EE5269400F51F12047826
:100ED00022754211800012048B221204781205D16F
:100EE0001204ADE523752300B40A34F522852738B2
:100EF000852637852536D312056774421213A5124D
:100F0000138090FF087410F0D312057DB1324012A7
:100F10001205DDD203120478C3227542FB800375EB
:100F200042061205BE12048BD322E527B4DC0F85DE
:100F30002609852508E526B41B0040208011B40051
:100F40001A750800750900E5267004E525600BD1C7
:100F5000BA300308C203120F402222227542F22245
:100F6000745B1213A512138085370CE5367F0633A8
:100F7000C50CDFFBE536541F6002050CAF0C1213E5
:100F8000987E0312102E404912138BE509700DE56F
:100F9000087009120FB45029DEE980357D10120F58
:100FA000E612102E402B1212B812125974AD121202
:100FB00085401E12138B7D10120FFA5004DEC48080
:100FC00010E5082420F508E5093400F509DFAF80B5
:100FD00002D207227D0F120FE690FF24E090FF253A
:100FE000E012102E401F1212B812125974AD1212D4
:100FF00085401212138B7D0F120FFA400890FF24C8
:10100000E090FF25E02290FF24E012128590FF255A
:10101000E0121285DDF01212B82290FF24E0F5F004
:1010200012129665F0701F1212A490FF25E0F5F0E1
:1010300012129665F0700FDD081212A81212B8C3D2
:10104000221212A480D41212A81212B8D322C006FF
:101050007E3012125974AC121285500812131DDE24
:10106000F1D3800AE509121285E508121285D0062F
:1010700022E524F550B403005021120478E550B461
:101080000006753100021074B401067531070210B4
:101090007475310E8531471214322275420B1204D9
:1010A0008B22E524604614600302110AE535B40082
:1010B0001B7532117530031211F4121332E53AB474
:1010C000070590153E806A9015808065B4041B75F5
:1010D000322A12121F4330041211F4E53AB4070504
:1010E000901607804C9016298047803EE535B40065
:1010F0001B7532117530011211F4121332E53AB436
:10110000070590151D802A90155F8025B4041B7576
:10111000322A12121F5330FB1211F4E53AB40705BC
:101120009015F6800C901618800775420E12048BED
:10113000221212F6E535B4040690163A1212F6128F
:10114000047822E524603814600302118FE535B479
:10115000001175322A7530901211F475322B7530EA
:101160004C8053B4041775322A12121F4330805337
:10117000309F1211F475322B7530AE80398030E516
:1011800035B4001175322A7530B01211F475322B56
:101190007530088021B4041775322A12121F4330AB
:1011A000A05330BF1211F475322B7530688007756B
:1011B000421212048B221211F412047822120478C3
:1011C0008524368525377538008526088527091238
:1011D00009AF745B1213A512138090FF6F7400F0B7
:1011E000A3E537F0A3E536F0A937A83609B8000320
:1011F00019780090FF24E090FF29F090FF25E090FF
:10120000FF2AF090FF65E030E5F918D8E6D9E2C38F
:1012100012057D22C0077F03121259E54D12128577
:101220004016E532121285400FE530121285400853
:101230001212B8C206D00722DFDED206D00722C0C3
:10124000077F03121259E54D1212854025E532122F
:101250001285401E1212B8121261E54D0412128559
:101260004010121296F5301212A81212B8C206D00F
:101270000722DFCFD206D00722D2AA90FF7B744A82
:10128000F090FF7C7407F090FF7C7406F01212CB94
:1012900090FF7C7400F01212CB2274FD800274FF68
:1012A00090FF80F02290FF7DF090FF7C7401F0129F
:1012B00012CB1212E62290FF7C7403F01212CB9034
:1012C000FF7EE0227400800274FF90FF7DF090FFAB
:1012D0007C7402F01212CB2290FF7C7405F0121283
:1012E000CB90FF7C7406F01212CB22C007C37F00A4
:1012F00090FF7FE033500A12131DDFF4D204D38035
:1013000002C204D0072290FF7C7404F051CB400548
:1013100090FF7EE01322E493B4FF0122F532A3E4B0
:1013200093A3C083C082F53031F4D082D08380E6AD
:10133000000022C0077F1100DFFDD00722C0077F19
:10134000B500DFFDD00722711D711D711D711D716A
:101350001D22C0067E19711DDEFCD00622C005C00C
:10136000E0C0F0C3E509850AF084F5097400C0E027
:101370007D08E50833F508E5F033850AF04006847A
:101380007008C38006C395F0F5F0D3D0E033C0E019
:10139000DDE0D0E0F50885F00BD0F0D0E0D00522FC
:1013A00090FF137400F0A37400F02290FF13E5493E
:1013B000F090FF14E548F02290FF93E0F54990FF8C
:1013C00094E0F5482290FF11F022C2AFC0E0D0E0D7
:1013D000D2AF32C2AFC0E0C0D0C082C08390FF7431
:1013E000E0F52EA3E0422E207702D205207307718C
:1013F00032120D32D20020711EC3E5419401F54135
:10140000E5409400F54090FF0674FFF0E54070075A
:10141000E5417003120D39207502D20A207622D2DE
:101420000990FF2BE0B4FF1990FF28E0B430028050
:1014300010752EFF7581509002ACC082C083D2AF70
:1014400032207000752EFFD083D082D0D0D0E0D271
:10145000AF32E547B41100400122C007C006C0F01A
:1014600090FF08E0C2E7F07F807E00EE90FF8BF0F7
:1014700090003093F5F0E5472410A4C5F0B41000B7
:10148000500A540F53F0F045F0C4800274FF90FFEF
:101490008CF00EDFD690FF08E0D2E7F0D0F0D00657
:1014A000D0072232420AFF760BF040044229FE00A8
:1014B0000000000000000180028003600660070059
:1014C0000C220D2211011224132115001603172FCF
:1014D00018CF19061AF51B00201021802280230046
:1014E00026A227EA29002AB02B082C002D552E8091
:1014F0002F4460276102625F63CF6457658366553E
:10150000679268AF69766A226B006C086D446E80E2
:101510006F0D708B7180721473547400758E760029
:1015200077FF788079807A807BE27C0014842820A1
:10153000243A25602D95679274002B4CFF03802080
:1015400010148412202820244A25602D15679269E2
:10155000767400066012241541172F1906FF03A0A8
:101560002000148412202821244A25602D0567922A
:1015700069767460069012241500172F1906FF0370
:1015800080201014A412302800243025302D5567F7
:10159000B269767420066012341500172F1906FF01
:1015A00003A0200014A412302801243025302D453A
:1015B00067B269767460069012341500172F190609
:1015C000FF128003A4043005880660110112151370
:1015D000A31414151416001E001F4020D0231E242F
:1015E000A02580263227E228202AB12B682D052F3E
:1015F0009D300031C4608661E06288631164896552
:10160000006794687A69086C116D336E226F0074FC
:1016100020750E77C4FF2632742012151414155449
:10162000171A18BA1903FF26C2746012151414157C
:1016300054171A18BA1903FF26C27420120514345D
:101640001514171B18BB1903FF26C274601205146A
:10165000341514171B18BB1903FF16001E00FF00DA
:10166000FF00D475B8973218B28804A443111B70D8
:10167000F100BC40333361A8DB883D4E7685E3162C
:10168000FFFFFFFFFFFFFFFFFFFFFFFFFFFFFFFF6A
:10169000FFFFFFFFFFFFFFFFFFFFFFFFFFFFFFFF5A
:1016A000FFFFFFFFFFFFFFFFFFFFFFFFFFFFFFFF4A
:1016B000FFFFFFFFFFFFFFFFFFFFFFFFFFFFFFFF3A
:00000001FF
